S0260000636F696E4163636570746F722D696E6E7465727275707450726F6772616D2E73726563C4
S11300000C942A000C9447000C9447000C9447006D
S11300100C9447000C9447000C9447000C94470040
S11300200C9447000C9406010C9447000C94470070
S11300300C9447000C9447000C9447000C94470020
S11300400C9447000C9447000C9447000C94470010
S11300500C94470011241FBECFE5D4E0DEBFCDBF12
S113006011E0A0E6B0E0E0E0F8E002C005900D92F7
S1130070A433B107D9F711E0A4E3B1E001C01D92A4
S1130080A335B107E1F70E9401030C94FE030C941D
S113009000009698979895980895969A9798089539
S11300A0979A969808958FB582608FBD8EB58961B1
S11300B08EBD8FE19EE497BD86BD08958FB580689F
S11300C08FBD88E893E19BBD8ABD08958FB580629A
S11300D08FBD8CEA9DE099BD88BD0895089508956B
S11300E08FB58F778FBD1BBC1ABC08958FB58F7DDC
S11300F08FBD19BC18BC089583ED90E30197F1F707
S113010000C00000929A939883ED90E30197F1F771
S113011000C00000089583ED90E30197F1F700C05B
S1130120000092989398949883ED90E30197F1F7E7
S113013000C00000089583B7836083BF89B78160DE
S113014089BF12BE089583B78E7F83BF83B78D7F27
S113015083BF89B78E7F89BF89EF90E00197F1F75C
S113016000C0000012BE08950E94A3008FE996E823
S1130170A1E081509040A040E1F700C000000E943F
S11301804D00A3EDB0E31197F1F700C000000E9409
S11301905E008FE39DE0A3E081509040A040E1F732
S11301A000C000000E947000A3EDB0E31197F1F7C6
S11301B000C000000E94490008950E94A3008FE936
S11301C096E8A1E081509040A040E1F700C0000013
S11301D00E945000A3EDB0E31197F1F700C00000B6
S11301E00E945E008FE39DE0A3E081509040A04018
S11301F0E1F700C000000E947000A3EDB0E3119786
S1130200F1F700C000000E94490008951F920F9268
S11302100FB60F9211248F939F93809152018F5F99
S113022080935201809152018D33A1F410925201B6
S1130230809151018F5F8093510195B388E08927A4
S113024085BB80915101843128F01092510181E0E5
S1130250809350019F918F910F900FBE0F901F902C
S11302601895DD9A83E08A95F1F700008BB3807CC2
S11302708BBB089517BADE9A8BB31BBAC79B04C015
S11302800E943101C799FCCF8FEF87BB0895CF93AC
S1130290C82F0E943A01C8BB8BB38F738BBB0E94DB
S11302A0310118BACF910895CF93C82F0E943A0113
S11302B0C8BBDE98DF9A0E94310118BACF91089525
S11302C0CF93DF93EC018881882331F021960E943B
S11302D0540189918823D9F7DF91CF910895109221
S11302E05201109251011092500110924F0110923C
S11302F04E0110924D0110924C0110924B0110923C
S11303004A0110924901109248011092470110923B
S1130310460110924501109244011092430110923B
S11303204201109241011092400110923F0110923B
S11303303E0110923D0110923C0110923B0110923B
S11303403A0110923901109238011092370110923B
S1130350360110923501109234010E94A30015BA9F
S113036081E00E94470183EF91E00197F1F700C01B
S1130370000080E690E00E9460018FE996E8A1E029
S113038081509040A040E1F700C00000089581E052
S11303900E94470183EF91E00197F1F700C000004C
S11303A081E790E00E946001CB9B16C081E08093BE
S11303B04D010E944701A3EFB1E01197F1F700C08E
S11303C0000080E890E00E94600187EA91E60197CE
S11303D0F1F700C000000895CB99E6CF10924D01CB
S11303E081E00E944701A3EFB1E01197F1F700C04B
S11303F000008EE890E00E9460018FE39DE0A3E09E
S113040081509040A040E1F700C00000AF9A0895E9
S113041080915001813029F410923B0110923A01ED
S11304200895C89BF5CF81E090E090933D018093BF
S11304303C0190933B0180933A0181E00E94470183
S113044083EF91E00197F1F700C000008BE990E0A1
S11304500E94600108950F931F93CF93DF93CCEA1A
S1130460D0E007EB10E081E00E94470183EF91E0C8
S11304700197F1F700C00000CE010E9460018FE3F4
S11304809DE0A3E081509040A040E1F700C000004F
S1130490C89B0DC081E00E944701A3EFB1E0119712
S11304A0F1F700C00000C8010E946001DCCF89B3ED
S11304B080FDD9CF0E947C000E94660081E00E94EA
S11304C0470183EF91E00197F1F700C0000085EC4C
S11304D090E00E946001AD9ADF91CF911F910F913E
S11304E00895CF93DF93EC018881882331F021961E
S11304F00E94540189918823D9F7DF91CF910895FF
S11305000F931F93CF93DF93CFEDD0E000EF10E074
S1130510CA9B27C080914401909145010097C1F77F
S113052081E090E090934501809344018AE090E05B
S11305309093470180934601AC9A0E949B0080915E
S11305404D01813009F058C00E94470183EF91E0CA
S11305500197F1F700C0000081ED90E00E94600176
S11305604BC0CA99D5CF809136019091370101963D
S1130570909337018093360127E2803192077CF112
S11305801092370110923601809134019091350117
S11305900196909335018093340127E280319207CC
S11305A00CF4B6CF109235011092340181E00E9410
S11305B0470183EF91E00197F1F700C00000CE01FD
S11305C00E94710280EC0E94470183EF91E0019741
S11305D0F1F700C00000C8010E94710299CF809118
S11305E04401909145018130910509F091CF109219
S11305F04501109244018CCFDF91CF911F910F914F
S11306000895CFEFCABBC4BB8CEF81BB8AB3806EA5
S11306108ABB8BB38F608BBB15BA83E082BBD49A41
S1130620DC9AA89A0E94530085EA9EE00197F1F7AC
S113063000C0000081E00E944701A3EFB1E01197E0
S1130640F1F700C0000088E30E944701B0E1BA95C9
S1130650F1F700C08CE00E94470180E18A95F1F730
S113066000C0C5BB8FE996E8A1E081509040A0404E
S1130670E1F700C0000015BA8FE996E8A1E08150C7
S11306809040A040E1F700C00000CFEDD0E000EFC3
S113069010E00F2EF1E0EF2EF1E0FF2EF02D0F2EE3
S11306A0F2E2CF2EF1E0DF2EF02D0F2EF2E1AF2E8D
S11306B0F1E0BF2EF02D0F2EF4E98F2EF1E19F2EE5
S11306C0F02D0E946F010E94C70181E00E94470142
S11306D0A3EFB1E01197F1F700C00000CE010E9432
S11306E0600180EC0E94470183EF91E00197F1F7EC
S11306F000C00000C8010E9460010E948002809135
S11307004601909147018A30910509F074C08091A7
S11307104D01813009F048C00E942B020E9408025A
S113072080913A0190913B018130910591F499BCFB
S113073088BC8FE798E3A1E081509040A040E1F7A6
S113074000C000000E9476000E948B000E94B4004A
S1130750B8CF009709F0B5CF0E9476000E948B00B5
S113076081E00E944701A3EFB1E01197F1F700C0C7
S11307700000C7010E94600180EC0E94470183EFE2
S113078091E00197F1F700C00000C5010E946001EB
S11307908FE39DE0A3E081509040A040E1F700C0CA
S11307A000000E94DD008DCF882309F08ACF81E00C
S11307B00E944701A3EFB1E01197F1F700C00000D8
S11307C0C7010E94600180EC0E94470183EF91E021
S11307D00197F1F700C00000C6010E9460018FE399
S11307E09DE0A3E081509040A040E1F700C00000EC
S11307F00E94DD0066CF0E94DD0063CFF894FFCF36
S1130800706172616D65746572732052657365748D
S113081000636865636B696E672073746F636B0054
S113082073746F636B2070726573656E74006F759B
S113083074206F662073746F636B00706C656173F2
S11308406520636F6C6C6563742121006865726553
S113085020776520676F007069636B207570206670
S11308606972737400706C65617365207761697473
S113087000636F696E206163636570746564002052
S113088041555354494E20507674204C74642E00C4
S1130890506C7A20496E7365727420527320313023
S11308A000506C7A20436F6C6C65637420436F69ED
S11308B06E004552524F522D5452592041474149DE
S11308C04E0020204F5554204F462053544F434B45
S10708D020200000E0
S9030000FC
